{
  "_format": "hh-sol-artifact-1",
  "contractName": "BuyMeACoffee",
  "sourceName": "contracts/BuyMeACoffee.sol",
  "abi": [
    {
      "inputs": [],
      "stateMutability": "nonpayable",
      "type": "constructor"
    },
    {
      "anonymous": false,
      "inputs": [
        {
          "indexed": true,
          "internalType": "address",
          "name": "from",
          "type": "address"
        },
        {
          "indexed": false,
          "internalType": "uint256",
          "name": "timestamp",
          "type": "uint256"
        },
        {
          "indexed": false,
          "internalType": "string",
          "name": "name",
          "type": "string"
        },
        {
          "indexed": false,
          "internalType": "string",
          "name": "message",
          "type": "string"
        }
      ],
      "name": "NewMemo",
      "type": "event"
    },
    {
      "inputs": [
        {
          "internalType": "string",
          "name": "_name",
          "type": "string"
        },
        {
          "internalType": "string",
          "name": "_message",
          "type": "string"
        }
      ],
      "name": "buyCoffee",
      "outputs": [],
      "stateMutability": "payable",
      "type": "function"
    },
    {
      "inputs": [],
      "name": "getMemos",
      "outputs": [
        {
          "components": [
            {
              "internalType": "address",
              "name": "from",
              "type": "address"
            },
            {
              "internalType": "uint256",
              "name": "timestamp",
              "type": "uint256"
            },
            {
              "internalType": "string",
              "name": "name",
              "type": "string"
            },
            {
              "internalType": "string",
              "name": "message",
              "type": "string"
            }
          ],
          "internalType": "struct BuyMeACoffee.Memo[]",
          "name": "",
          "type": "tuple[]"
        }
      ],
      "stateMutability": "view",
      "type": "function"
    },
    {
      "inputs": [
        {
          "internalType": "address",
          "name": "newOwner",
          "type": "address"
        }
      ],
      "name": "transferOwnership",
      "outputs": [],
      "stateMutability": "nonpayable",
      "type": "function"
    },
    {
      "inputs": [],
      "name": "withdrawTips",
      "outputs": [],
      "stateMutability": "nonpayable",
      "type": "function"
    }
  ],
  "bytecode": "0x608060405234801561001057600080fd5b50336000806101000a81548173ffffffffffffffffffffffffffffffffffffffff021916908373ffffffffffffffffffffffffffffffffffffffff160217905550610e44806100606000396000f3fe60806040526004361061003f5760003560e01c8063204206e1146100445780633aaa74b214610060578063865c517214610077578063f2fde38b146100a2575b600080fd5b61005e60048036038101906100599190610790565b6100cb565b005b34801561006c57600080fd5b50610075610253565b005b34801561008357600080fd5b5061008c610323565b6040516100999190610a52565b60405180910390f35b3480156100ae57600080fd5b506100c960048036038101906100c49190610767565b610506565b005b6000341161010e576040517f08c379a000000000000000000000000000000000000000000000000000000000815260040161010590610a94565b60405180910390fd5b600160405180608001604052803373ffffffffffffffffffffffffffffffffffffffff16815260200142815260200184815260200183815250908060018154018082558091505060019003906000526020600020906004020160009091909190915060008201518160000160006101000a81548173ffffffffffffffffffffffffffffffffffffffff021916908373ffffffffffffffffffffffffffffffffffffffff1602179055506020820151816001015560408201518160020190805190602001906101dd929190610647565b5060608201518160030190805190602001906101fa929190610647565b5050503373ffffffffffffffffffffffffffffffffffffffff167fc56140e05f516509ae28110e0f72e17558a7561630dad2647c3ae87d986e365c42848460405161024793929190610af4565b60405180910390a25050565b60008060009054906101000a900473ffffffffffffffffffffffffffffffffffffffff1673ffffffffffffffffffffffffffffffffffffffff164760405161029a90610a3d565b60006040518083038185875af1925050503d80600081146102d7576040519150601f19603f3d011682016040523d82523d6000602084013e6102dc565b606091505b5050905080610320576040517f08c379a000000000000000000000000000000000000000000000000000000000815260040161031790610ad4565b60405180910390fd5b50565b60606001805480602002602001604051908101604052809291908181526020016000905b828210156104fd57838290600052602060002090600402016040518060800160405290816000820160009054906101000a900473ffffffffffffffffffffffffffffffffffffffff1673ffffffffffffffffffffffffffffffffffffffff1673ffffffffffffffffffffffffffffffffffffffff168152602001600182015481526020016002820180546103da90610c7e565b80601f016020809104026020016040519081016040528092919081815260200182805461040690610c7e565b80156104535780601f1061042857610100808354040283529160200191610453565b820191906000526020600020905b81548152906001019060200180831161043657829003601f168201915b5050505050815260200160038201805461046c90610c7e565b80601f016020809104026020016040519081016040528092919081815260200182805461049890610c7e565b80156104e55780601f106104ba576101008083540402835291602001916104e5565b820191906000526020600020905b8154815290600101906020018083116104c857829003601f168201915b50505050508152505081526020019060010190610347565b50505050905090565b60008054906101000a900473ffffffffffffffffffffffffffffffffffffffff1673ffffffffffffffffffffffffffffffffffffffff163373ffffffffffffffffffffffffffffffffffffffff1614610594576040517f08c379a000000000000000000000000000000000000000000000000000000000815260040161058b90610a74565b60405180910390fd5b600073ffffffffffffffffffffffffffffffffffffffff168173ffffffffffffffffffffffffffffffffffffffff161415610604576040517f08c379a00000000000000000000000000000000000000000000000000000000081526004016105fb90610ab4565b60405180910390fd5b806000806101000a81548173ffffffffffffffffffffffffffffffffffffffff021916908373ffffffffffffffffffffffffffffffffffffffff16021790555050565b82805461065390610c7e565b90600052602060002090601f01602090048101928261067557600085556106bc565b82601f1061068e57805160ff19168380011785556106bc565b828001600101855582156106bc579182015b828111156106bb5782518255916020019190600101906106a0565b5b5090506106c991906106cd565b5090565b5b808211156106e65760008160009055506001016106ce565b5090565b60006106fd6106f884610b5e565b610b39565b90508281526020810184848401111561071557600080fd5b610720848285610c3c565b509392505050565b60008135905061073781610df7565b92915050565b600082601f83011261074e57600080fd5b813561075e8482602086016106ea565b91505092915050565b60006020828403121561077957600080fd5b600061078784828501610728565b91505092915050565b600080604083850312156107a357600080fd5b600083013567ffffffffffffffff8111156107bd57600080fd5b6107c98582860161073d565b925050602083013567ffffffffffffffff8111156107e657600080fd5b6107f28582860161073d565b9150509250929050565b600061080883836109b5565b905092915050565b61081981610c00565b82525050565b600061082a82610b9f565b6108348185610bc2565b93508360208202850161084685610b8f565b8060005b85811015610882578484038952815161086385826107fc565b945061086e83610bb5565b925060208a0199505060018101905061084a565b50829750879550505050505092915050565b600061089f82610baa565b6108a98185610bde565b93506108b9818560208601610c4b565b6108c281610d3f565b840191505092915050565b60006108d882610baa565b6108e28185610bef565b93506108f2818560208601610c4b565b6108fb81610d3f565b840191505092915050565b6000610913601383610bef565b915061091e82610d50565b602082019050919050565b6000610936600083610bd3565b915061094182610d79565b600082019050919050565b6000610959601083610bef565b915061096482610d7c565b602082019050919050565b600061097c601e83610bef565b915061098782610da5565b602082019050919050565b600061099f600f83610bef565b91506109aa82610dce565b602082019050919050565b60006080830160008301516109cd6000860182610810565b5060208301516109e06020860182610a1f565b50604083015184820360408601526109f88282610894565b91505060608301518482036060860152610a128282610894565b9150508091505092915050565b610a2881610c32565b82525050565b610a3781610c32565b82525050565b6000610a4882610929565b9150819050919050565b60006020820190508181036000830152610a6c818461081f565b905092915050565b60006020820190508181036000830152610a8d81610906565b9050919050565b60006020820190508181036000830152610aad8161094c565b9050919050565b60006020820190508181036000830152610acd8161096f565b9050919050565b60006020820190508181036000830152610aed81610992565b9050919050565b6000606082019050610b096000830186610a2e565b8181036020830152610b1b81856108cd565b90508181036040830152610b2f81846108cd565b9050949350505050565b6000610b43610b54565b9050610b4f8282610cb0565b919050565b6000604051905090565b600067ffffffffffffffff821115610b7957610b78610d10565b5b610b8282610d3f565b9050602081019050919050565b6000819050602082019050919050565b600081519050919050565b600081519050919050565b6000602082019050919050565b600082825260208201905092915050565b600081905092915050565b600082825260208201905092915050565b600082825260208201905092915050565b6000610c0b82610c12565b9050919050565b600073ffffffffffffffffffffffffffffffffffffffff82169050919050565b6000819050919050565b82818337600083830152505050565b60005b83811015610c69578082015181840152602081019050610c4e565b83811115610c78576000848401525b50505050565b60006002820490506001821680610c9657607f821691505b60208210811415610caa57610ca9610ce1565b5b50919050565b610cb982610d3f565b810181811067ffffffffffffffff82111715610cd857610cd7610d10565b5b80604052505050565b7f4e487b7100000000000000000000000000000000000000000000000000000000600052602260045260246000fd5b7f4e487b7100000000000000000000000000000000000000000000000000000000600052604160045260246000fd5b6000601f19601f8301169050919050565b7f63616c6c6572206973206e6f74206f776e657200000000000000000000000000600082015250565b50565b7f6d75737420696e636c7564652045544800000000000000000000000000000000600082015250565b7f6e65774f776e65722063616e2774206265207a65726f20616464726573730000600082015250565b7f7769746864726177206661696c65640000000000000000000000000000000000600082015250565b610e0081610c00565b8114610e0b57600080fd5b5056fea2646970667358221220bfbe1931fe7c9bc437e7b9877c8f0e922553ffea41aef705ab1eae61818e559964736f6c63430008040033",
  "linkReferences": {},
  "deployedLinkReferences": {}
}